:040000000DEF00F010
:04000800DCEF1CF01D
:06001800FF0057EF1EF08F
:102E0000004F4E3A256C752573204F46463A256C87
:0B2E1000752573006D730075730000E2
:102E1C0010C5D9F411C5DAF4DFC4F6F42E0EF76E32
:102E2C000800F550250AD8A41EEF17F020EF17F074
:102E3C00C7EF18F010C5D9F411C5DAF4DF2A000E6B
:102E4C000501896F000E886F88C558F58A698B69F2
:102E5C0010C5D9F411C5DAF4DF501F6E1FC5F6F496
:102E6C002E0EF76E0800F5C420F547EF17F01F2A59
:102E7C0052EF17F0690E206E52EF17F0206A52EFE6
:102E8C0017F020506C0AD8B43DEF17F0190AD8B4DB
:102E9C0040EF17F044EF17F01FC5F6F42E0EF76E47
:102EAC000800F550750AD8A45EEF17F060EF17F024
:102EBC0021EF18F098EF17F012C5D9F413C5DAF416
:102ECC00DFC414F5020EDE26DFC415F5000EDD227C
:102EDC0014C5D9F415C5DAF4DEC416F5DDC417F53E
:102EEC0016C51BF517C51CF51D6A1E6AA3EF17F056
:102EFC0012C5D9F413C5DAF4DFC414F5040EDE26BA
:102F0C00DFC415F5000EDD2214C5D9F415C5DAF4AD
:102F1C00DEC41BF5DEC41CF5DEC41DF5DEC41EF5D7
:102F2C00A3EF17F02050690AD8B462EF17F0050A26
:102F3C00D8B47EEF17F0A3EF17F01F2810C5D9F403
:102F4C0011C5DAF4DF6E15EF18F0200E206E200696
:102F5C00600E2024D96EDA6A050EDA221BC501F543
:102F6C001CC502F51DC503F51EC504F50A0E056E3C
:102F7C00000E066E000E076E000E086E13EC1EF0AF
:102F8C000150300FDF6E1BC501F51CC502F51DC5C8
:102F9C0003F51EC504F50A0E056E000E066E000E36
:102FAC00076E000E086EC1EC1DF001C51BF502C5C5
:102FBC001CF503C51DF504C51EF51B501C101D107A
:102FCC001E10D8B4ECEF17F0EEEF17F00AEF18F074
:102FDC002050D8A4F4EF17F0F6EF17F0ADEF17F080
:102FEC000AEF18F0600E2024D96EDA6A050EDA2288
:102FFC00DF50146E1450016E026A0EC503F50FC536
:10300C0004F55CEC1DF0202A200E2018D8A411EF3A
:10301C0018F013EF18F0F8EF17F0DBEF18F01FC5EE
:10302C00F6F42E0EF76E0800F550750AD8B4ABEF17
:10303C0017F021EF18F0186A10C5D9F411C5DAF49D
:10304C00DFC4F6F42E0EF76E0800F550730AD8A400
:10305C0032EF18F034EF18F03DEF18F010C5D9F43A
:10306C0011C5DAF4DF2A010E186E83EF18F010C5C3
:10307C00D9F411C5DAF4DFC4F6F42E0EF76E08009D
:10308C00F5506C0AD8A44DEF18F04FEF18F083EF01
:10309C0018F010C5D9F411C5DAF4DF50146E010E16
:1030AC00142614C5F6F42E0EF76E0800F5506C0AB3
:1030BC00D8A463EF18F065EF18F083EF18F010C583
:1030CC00D9F411C5DAF4DF50146E020E142614C5AF
:1030DC00F6F42E0EF76E0800F550730AD8A479EFAB
:1030EC0018F07BEF18F083EF18F010C5D9F411C568
:1030FC00DAF4030EDF2639EF18F01850D8B489EF44
:10310C0018F08BEF18F0C0EF18F012C5D9F413C5F6
:10311C00DAF4DFC414F5020EDE26DFC415F5000E5A
:10312C00DD2214C5D9F415C5DAF4DEC419F5DDC4F5
:10313C001AF5B2EF18F019C5D9F41AC5DAF4DF5044
:10314C00146E1450016E026A0EC503F50FC504F51A
:10315C005CEC1DF0194A1A2A19C5D9F41AC5DAF40F
:10316C00DF50D8A4BCEF18F0BEEF18F0A1EF18F0A8
:10317C00DBEF18F010C5D9F411C5DAF4DF2ADBEF58
:10318C0018F010C5D9F411C5DAF4DFC4F6F42E0E1C
:10319C00F76E0800F550016E026A0EC503F50FC5F7
:1031AC0004F55CEC1DF0C0EF18F012005CC549F59D
:1031BC005DC54AF55EC54BF55FC54CF5C4C54DF50F
:1031CC00C5C54EF5C6C54FF5C7C550F54C500DE1FC
:1031DC00400E495C420E4A580F0E4B58D8A0F9EFDE
:1031EC0018F0FBEF18F01FEF19F049C501F54AC5AF
:1031FC0002F54BC503F54CC504F5400E056E420EA9
:10320C00066E0F0E076E000E086EC1EC1DF001C5A8
:10321C0049F502C54AF503C54BF504C54CF5430EFB
:10322C00016E050E026E120E036E67EC1FF059EF65
:10323C0019F04C504B100BE1E80E495C030E4A5848
:10324C00D8A02BEF19F02DEF19F051EF19F049C55B
:10325C0001F54AC502F54BC503F54CC504F5E80E5E
:10326C00056E030E066E000E076E000E086EC1ECA6
:10327C001DF001C549F502C54AF503C54BF504C55A
:10328C004CF5430E016E050E026E140E036E67ECC8
:10329C001FF059EF19F0430E016E050E026E170E5A
:1032AC00036E67EC1FF050500DE1400E4D5C420E6A
:1032BC004E580F0E4F58D8A066EF19F068EF19F062
:1032CC008CEF19F04DC501F54EC502F54FC503F550
:1032DC0050C504F5400E056E420E066E0F0E076EBD
:1032EC00000E086EC1EC1DF001C54DF502C54EF582
:1032FC0003C54FF504C550F5460E016E050E026E62
:10330C00120E036E67EC1FF0C6EF19F050504F1001
:10331C000BE1E80E4D5C030E4E58D8A098EF19F057
:10332C009AEF19F0BEEF19F04DC501F54EC502F537
:10333C004FC503F550C504F5E80E056E030E066E79
:10334C00000E076E000E086EC1EC1DF001C54DF5A8
:10335C0002C54EF503C54FF504C550F5460E016E7A
:10336C00050E026E140E036E67EC1FF0C6EF19F01B
:10337C00460E016E050E026E170E036E67EC1FF003
:10338C008C0E276E050E286E010E296E49C52AF586
:10339C004AC52BF54BC52CF54CC52DF5430E2E6EA1
:1033AC00050E2F6E4DC530F54EC531F54FC532F5B6
:1033BC0050C533F5460E346E050E356E43EC1FF0DA
:1033CC00010E57EC1CF08C0E046E050E056E84EC91
:1033DC001FF012000F6E410E0F18D8A4F8EF19F061
:1033EC00FAEF19F01BEF1AF05B50D8A400EF1AF0AB
:1033FC0002EF1AF011EF1AF0010E5B6EC0C584F5E6
:10340C00C1C585F5C2C586F5C3C587F5C184030161
:10341C00248FE8EF1AF05B6AC194C196C19803013E
:10342C00249FE8EF1AF0E8EF1AF0420E0F18D8A418
:10343C0022EF1AF024EF1AF02FEF1AF0596A5CC53C
:10344C0054F55DC555F55EC556F55FC557F5E8EF06
:10345C001AF0430E0F18D8A436EF1AF038EF1AF002
:10346C0044EF1AF0010E596EC4C554F5C5C555F597
:10347C00C6C556F5C7C557F5E8EF1AF0440E0F1838
:10348C00D8A44BEF1AF04DEF1AF059EF1AF0020EC8
:10349C00596EC0C554F5C1C555F5C2C556F5C3C561
:1034AC0057F5E8EF1AF02F0E0F645FEF1AF061EF8B
:1034BC001AF08FEF1AF03A0E0F6067EF1AF069EFFF
:1034CC001AF08FEF1AF0D00E0F240D6E0E6AFF0E4D
:1034DC000E2254C501F555C502F556C503F557C561
:1034EC0004F50A0E056E000E066E000E076E000E39
:1034FC00086E8FEC1EF00D500124546E0E500220FD
:10350C00556E000E0320566E000E0420576EE8EF29
:10351C001AF0230E0F18D8A496EF1AF098EF1AF0A1
:10352C0019EF1AF057505610551009E1640E545CFF
:10353C00D8A0A3EF1AF0A5EF1AF0E0EF1AF057504D
:10354C000BE1DD0E545C410E55580F0E5658D8B099
:10355C00B2EF1AF0B4EF1AF0E0EF1AF05950D8A409
:10356C00BAEF1AF0BCEF1AF0C6EF1AF054C55CF5BE
:10357C0055C55DF556C55EF557C55FF5E0EF1AF01C
:10358C005904D8A4CCEF1AF0CEEF1AF0D8EF1AF0F9
:10359C0054C5C4F555C5C5F556C5C6F557C5C7F5CB
:1035AC00E0EF1AF054C5C0F555C5C1F556C5C2F5C6
:1035BC0057C5C3F5000E546E000E556E000E566EB8
:1035CC00000E576E120021EEACF111EE03F1130E4A
:1035DC00DBC4E3F4E806FCE2BF80BF8EBF8CBF8A7D
:1035EC00BF88CFA0FCEF1AF0FEEF1AF016EF1BF01D
:1035FC00CFA203EF1BF005EF1BF016EF1BF0CFA4CF
:10360C000AEF1BF00CEF1BF016EF1BF0CFA611EF1F
:10361C001BF013EF1BF016EF1BF0000ED1EF1BF09D
:10362C00186ABF80BF8EBF8CBF8ABF881850D8A4C1
:10363C0022EF1BF024EF1BF027EF1BF0BF984BEF92
:10364C001BF01804D8A42DEF1BF02FEF1BF032EF5A
:10365C001BF0BF9A4BEF1BF0020E1818D8A439EFD1
:10366C001BF03BEF1BF03EEF1BF0BF9C4BEF1BF036
:10367C00030E1818D8A445EF1BF047EF1BF04AEFC8
:10368C001BF0BF9E4BEF1BF0BF90350EE82EFED704
:10369C000000196A1950D8A456EF1BF058EF1BF014
:1036AC005FEF1BF0CFA05DEF1BF05FEF1BF08EEF19
:1036BC001BF01904D8A465EF1BF067EF1BF06EEF3D
:1036CC001BF0CFA26CEF1BF06EEF1BF08EEF1BF01C
:1036DC00020E1918D8A475EF1BF077EF1BF07EEFD4
:1036EC001BF0CFA47CEF1BF07EEF1BF08EEF1BF0DA
:1036FC00030E1918D8A485EF1BF087EF1BF0BDEF54
:10370C001BF0CFB68CEF1BF08EEF1BF0BDEF1BF058
:10371C001950050D030EF324016E050EF420026EF4
:10372C0018500124D96E000E0220DA6EDF50176E8D
:10373C00CFA0A3EF1BF0A5EF1BF09EEF1BF0CFA2C9
:10374C00AAEF1BF0ACEF1BF09EEF1BF0CFA4B1EF78
:10375C001BF0B3EF1BF09EEF1BF0CFA6B8EF1BF0E6
:10376C00BAEF1BF09EEF1BF01750D1EF1BF0192A8C
:10377C00030E1964C4EF1BF0C6EF1BF050EF1BF0E7
:10378C00182A040E1864CDEF1BF0CFEF1BF017EFC7
:10379C001BF013EF1BF01200036EC08003C501F584
:1037AC00010E011601460146C0500118FB0B011811
:1037BC00C06E03C501F5D8900132010E0116014609
:1037CC0001460146C0500118F70B0118C06E03C525
:1037DC0001F5D8900132D8900132010E0116013A50
:1037EC00C0500118EF0B0118C06E03C501F5D8903D
:1037FC000132D8900132D8900132010E0116013AF3
:10380C000146C0500118DF0B0118C06E03C501F54D
:10381C00013A0F0E0116010E0116013A014601463E
:10382C00C0500118BF0B0118C06E03C501F5050E81
:10383C00026ED8900132022E1FEF1CF0010E011601
:10384C0001320132C05001187F0B0118C06E03C544
:10385C0001F5060E026ED8900132022E31EF1CF0EB
:10386C00010E0116C1500118FE0B0118C16E016A40
:10387C0003AE01D0012A010E01160146C1500118F8
:10388C00FD0B0118C16EC082050EE82EFED700009C
:10389C00C092E40E00D000D0E82EFCD700D000D0AF
:1038AC001200036EC09003C501F5010E011601460E
:1038BC000146C0500118FB0B0118C06E03C501F581
:1038CC00D8900132010E0116014601460146C05046
:1038DC000118F70B0118C06E03C501F5D890013221
:1038EC00D8900132010E0116013AC0500118EF0BAD
:1038FC000118C06E03C501F5D8900132D890013281
:10390C00D8900132010E0116013A0146C05001183F
:10391C00DF0B0118C06E03C501F5013A0F0E01163D
:10392C00010E0116013A01460146C0500118BF0BA9
:10393C000118C06E03C501F5050E026ED890013258
:10394C00022EA4EF1CF0010E011601320132C05000
:10395C0001187F0B0118C06E03C501F5060E026E2F
:10396C00D8900132022EB6EF1CF0010E0116C15098
:10397C000118FE0B0118C16E016A03AE01D0012AB9
:10398C00010E01160146C1500118FD0B0118C16E44
:10399C00C082050EE82EFED70000C092E40E00D0C7
:1039AC0000D0E82EFCD700D000D01200B0A2E1EF7E
:1039BC001CF0E3EF1CF05BEF1DF05B50D8B4E9EFAB
:1039CC001CF0EBEF1CF05AEF1DF0010E05018027E7
:1039DC00000E8123822383235A50D8A4F8EF1CF0C5
:1039EC00FAEF1CF017EF1DF05C50805D5D508159B3
:1039FC005E5082595F508359D8A007EF1DF009EF34
:103A0C001DF017EF1DF0C196C188010E5A6E000E05
:103A1C00806F000E816F000E826F000E836F39EF86
:103A2C001DF05A04D8A41DEF1DF01FEF1DF039EF47
:103A3C001DF0C451805DC5518159C6518259C75181
:103A4C008359D8A02CEF1DF02EEF1DF039EF1DF08F
:103A5C00C186C1985A6A000E806F000E816F000EED
:103A6C00826F000E836F8451851186118711D8B433
:103A7C0042EF1DF044EF1DF05AEF1DF08407000ECD
:103A8C00855B865B875B8451851186118711D8A471
:103A9C0052EF1DF054EF1DF05AEF1DF05B6AC1960A
:103AAC00C198C1940301249FB092110003500410DB
:103ABC00D8B463EF1DF065EF1DF06EEF1DF00350F1
:103ACC000410D8A46CEF1DF06EEF1DF073EF1DF019
:103ADC000150C0EC1FF0C0EF1DF020EE09F00350B8
:103AEC00D9260450DA22DE50DE10D8B480EF1DF057
:103AFC0082EF1DF09DEF1DF020EE09F00350D9264A
:103B0C000450DA2210EE02F00350E1260450E222B7
:103B1C00DE50E65CE650800A096EDE50800A0958D9
:103B2C00D8B09BEF1DF09DEF1DF0C0EF1DF020EE07
:103B3C0002F00350D9260450DA22DEC405F5DDC4A8
:103B4C0006F503C5D9F404C5DAF4DEC407F5DDC403
:103B5C0008F505500724D96E06500820DA6E01C509
:103B6C00DFF420EE02F00350D9260450DA22DE2ACC
:103B7C00000EDD221200000E096E000E0A6E000E01
:103B8C000B6E000E0C6E0550061007100810D8B402
:103B9C00D2EF1DF0D4EF1DF00AEF1EF0010E0D6EEA
:103BAC00DEEF1DF0D89005360636073608360D2A9E
:103BBC0008AEE3EF1DF0E5EF1DF0D8EF1DF0D89047
:103BCC0009360A360B360C360550015C0650025885
:103BDC000750035808500458D8A0F7EF1DF0F9EF20
:103BEC001DF002EF1EF00550015E0650025A075000
:103BFC00035A0850045A0980D8900832073206320A
:103C0C0005320D2EE5EF1DF009C501F50AC502F5CB
:103C1C000BC503F50CC504F5120005500610071072
:103C2C000810D8B41CEF1EF01EEF1EF04EEF1EF065
:103C3C00010E096E28EF1EF0D890053606360736B1
:103C4C000836092A08AE2DEF1EF02FEF1EF022EFDA
:103C5C001EF00550015C06500258075003580850DE
:103C6C000458D8A03CEF1EF03EEF1EF046EF1EF0BD
:103C7C000550015E0650025A0750035A0850045A68
:103C8C00D8900832073206320532092E2FEF1EF07B
:103C9C0001C501F502C502F503C503F504C504F51C
:103CAC001200600EF66E3F0EF76E000EF86E01EE0F
:103CBC00ACF110EE1CF00900F5C4EEF4E550E15047
:103CCC00FAE17C0EF66E3F0EF76E000EF86E01EE0A
:103CDC005CF110EE04F00900F5C4EEF4E550E1508F
:103CEC00FAE101EE60F14C0EEE6AE806FDE101EE40
:103CFC0054F1080EEE6AE806FDE10401080E5D6F52
:103D0C00000E5E6F000E5F6F000EF86E0001F8EF94
:103D1C001EF0000E096E000E0A6E000E0B6E000EE9
:103D2C000C6E01A09CEF1EF09EEF1EF0A6EF1EF095
:103D3C000550092606500A2207500B2208500C2267
:103D4C00D8900536063607360836D890043203323A
:103D5C00023201320150021003100410D8A4B9EF42
:103D6C001EF0BBEF1EF097EF1EF009C501F50AC55A
:103D7C0002F50BC503F50CC504F51200050E056E16
:103D8C000F0E046EF10EE82EFED7042EFCD7052E76
:103D9C00FAD70000300E57EC1CF0680E046EE40EDF
:103DAC00E82EFED7042EFCD700D0300E57EC1CF0BA
:103DBC00E40E00D000D0E82EFCD700D000D0300E9E
:103DCC0057EC1CF0380E57EC1CF0080E57EC1CF09E
:103DDC00010E57EC1CF0060E57EC1CF00C0E57ECB9
:103DEC001CF012009CEC1FF0C4EC1EF0DCEC18F084
:103DFC00E9EC1AF0536E5350D8B407EF1FF009EFEB
:103E0C001FF0FEEF1EF05350F0EC19F0DCEC18F044
:103E1C00090E526E1E0E516EE40EE82EFED7512E78
:103E2C00FCD7522EFAD700D0FEEF1EF00DEF00F0AB
:103E3C0023C526F530EF1FF021C50EF522C50FF571
:103E4C00260E106E050E116E24C512F525C513F540
:103E5C000EEC17F026C5F6F42E0EF76E0800F55092
:103E6C000009D8A43CEF1FF03EEF1FF022EF1FF02B
:103E7C00000E226E000E216E12002A0E366E050EFA
:103E8C00376E27C538F528C539F5000E3B6E000E88
:103E9C003A6E000E426E000E416E380E216E050E0B
:103EAC00226E29C523F5360E246E050E256E1EECEA
:103EBC001FF03A502724D96E3B502820DA6EDF6A67
:103ECC00120001C505F502C506F5032A0304046EAC
:103EDC0004C5F6F42E0EF76E05C5D9F406C5DAF452
:103EEC00054A062A0800F5C4DFF4DF50D8A481EF98
:103EFC001FF083EF1FF06BEF1FF012008FEF1FF01E
:103F0C0004C5D9F405C5DAF4DF50D2EC1BF0044A31
:103F1C00052A04C5D9F405C5DAF4DF50D8A499EF05
:103F2C001FF09BEF1FF086EF1FF01200600E0001D8
:103F3C00AD6FC86AC96A0F0EC76E010EC66E04015A
:103F4C00086B006B0301246B3F0E236FA082D68E8F
:103F5C00D68A120031323341423435364344373835
:103F6C003945462A30234748E80300006400000026
:063F7C00640000001200C9
:020000040030CA
:070000008CFFF7FF9FFFFFDB
:00000001FF
